S01700004763634170706C69636174696F6E312E737265635B
S11300000C943A000C9444000C9444000C94440066
S11300100C9444000C9444000C9444000C9444004C
S11300200C9444000C9444000C9444000C9444003C
S11300300C9444000C9444000C9444000C9444002C
S11300400C9444000C9444000C9444000C9444001C
S11300500C944400560059005C005F006200650087
S113006068006B006E007100740077007A007D00F8
S11300708000830011241FBECFE5D8E0DEBFCDBFD2
S11300800E9446000C948C000C940000A0E8B1E09F
S11300908FEF84BB81E085BB14BAE3B3F0E0E031B9
S11300A0F105B0F7E65DFF4F0C9486008FE78D9362
S11300B0EFCF8FE68D93ECCF8FE78D93E9CF8FE76A
S11300C08D93E6CF8FE78D93E3CF8FE78D93E0CFCA
S11300D08BE78D93DDCF8FE78D93DACF8FE78D9309
S11300E0D7CF8FE68D93D4CF8FE78D93D1CF8FE782
S11300F08D93CECF8FE78D93CBCF8FE78D93C8CFE2
S11301008FE78D93C5CF8FE78D93C2CFEE0FFF1F7F
S10F01100590F491E02D0994F894FFCFC1
S9030000FC
