:020000020000FC
:1000000001E00EBF00E80DBF0FE004BB0EE005BB32
:1000100000EF04BB03B3003009F011F40C945A0054
:10002000013009F011F40C946000023009F011F471
:100030000C946300033009F011F40C945A0004305E
:1000400009F011F40C946F00053009F011F40C94D0
:100050007500063009F011F40C947B00073009F0AC
:1000600011F40C948000083009F011F40C9487000E
:10007000093009F011F40C948E000A3009F011F4E3
:100080000C9494000B3009F011F40C9499000C308E
:1000900009F011F40C94A1000D3009F011F40C9446
:1000A000A9000E3009F011F40C94B3000F3001F0E8
:1000B0000C94BD002AE5256622672F660C94C400C7
:1000C0002FE42E66256624E527672F660C94C4006E
:1000D00024E528662267256625660C94C40026E47C
:1000E0002F66256722670C94C40026E429662667DC
:1000F00025660C94C40023E5296628670C94C40087
:1001000023E52566266725662E660C94C40025E443
:1001100029662766286624670C94C4002EE42966A5
:100120002E6625660C94C40024E525662E660C9484
:10013000C40025E42C662566266725662E660C9489
:10014000C40024E5276725662C66266725660C947F
:10015000C40024E52866296622672467256625668B
:100160002E660C94C40026E42F6625672267246758
:10017000256625662E660C94C40026E4296626664C
:0E0180002467256625662E662F930C940400D6
:00000001FF
